{
  "contractName": "ItemManager",
  "abi": [
    {
      "anonymous": false,
      "inputs": [
        {
          "indexed": true,
          "internalType": "address",
          "name": "previousOwner",
          "type": "address"
        },
        {
          "indexed": true,
          "internalType": "address",
          "name": "newOwner",
          "type": "address"
        }
      ],
      "name": "OwnershipTransferred",
      "type": "event"
    },
    {
      "anonymous": false,
      "inputs": [
        {
          "indexed": false,
          "internalType": "uint256",
          "name": "_itemIndex",
          "type": "uint256"
        },
        {
          "indexed": false,
          "internalType": "uint256",
          "name": "_step",
          "type": "uint256"
        },
        {
          "indexed": false,
          "internalType": "address",
          "name": "_address",
          "type": "address"
        }
      ],
      "name": "SupplyChainStep",
      "type": "event"
    },
    {
      "inputs": [],
      "name": "owner",
      "outputs": [
        {
          "internalType": "address",
          "name": "",
          "type": "address"
        }
      ],
      "stateMutability": "view",
      "type": "function"
    },
    {
      "inputs": [],
      "name": "sv_itemIndex",
      "outputs": [
        {
          "internalType": "uint256",
          "name": "",
          "type": "uint256"
        }
      ],
      "stateMutability": "view",
      "type": "function"
    },
    {
      "inputs": [
        {
          "internalType": "uint256",
          "name": "",
          "type": "uint256"
        }
      ],
      "name": "sv_items",
      "outputs": [
        {
          "internalType": "string",
          "name": "_identifier",
          "type": "string"
        },
        {
          "internalType": "uint256",
          "name": "_itemPrice",
          "type": "uint256"
        },
        {
          "internalType": "enum ItemManager.SupplyChainState",
          "name": "_state",
          "type": "uint8"
        },
        {
          "internalType": "contract Item",
          "name": "_item",
          "type": "address"
        }
      ],
      "stateMutability": "view",
      "type": "function"
    },
    {
      "inputs": [
        {
          "internalType": "address",
          "name": "newOwner",
          "type": "address"
        }
      ],
      "name": "transferOwnership",
      "outputs": [],
      "stateMutability": "nonpayable",
      "type": "function"
    },
    {
      "inputs": [
        {
          "internalType": "string",
          "name": "_identifier",
          "type": "string"
        },
        {
          "internalType": "uint256",
          "name": "_itemPrice",
          "type": "uint256"
        }
      ],
      "name": "createItem",
      "outputs": [],
      "stateMutability": "nonpayable",
      "type": "function"
    },
    {
      "inputs": [
        {
          "internalType": "uint256",
          "name": "_itemIndex",
          "type": "uint256"
        }
      ],
      "name": "triggerPayment",
      "outputs": [],
      "stateMutability": "payable",
      "type": "function"
    },
    {
      "inputs": [
        {
          "internalType": "uint256",
          "name": "_itemIndex",
          "type": "uint256"
        }
      ],
      "name": "triggerDelivery",
      "outputs": [],
      "stateMutability": "nonpayable",
      "type": "function"
    },
    {
      "inputs": [],
      "name": "renounceOwnership",
      "outputs": [],
      "stateMutability": "view",
      "type": "function"
    }
  ],
  "bytecode": "0x608060405234801561001057600080fd5b5061002d61002261003260201b60201c565b61003a60201b60201c565b6100fe565b600033905090565b60008060009054906101000a900473ffffffffffffffffffffffffffffffffffffffff169050816000806101000a81548173ffffffffffffffffffffffffffffffffffffffff021916908373ffffffffffffffffffffffffffffffffffffffff1602179055508173ffffffffffffffffffffffffffffffffffffffff168173ffffffffffffffffffffffffffffffffffffffff167f8be0079c531659141344cd1fd0a4f28419497f9722a3daafe3b4186f6b6457e060405160405180910390a35050565b611df08061010d6000396000f3fe608060405260043610620000865760003560e01c80638da5cb5b11620000555780638da5cb5b1462000123578063be36f9a81462000153578063cd31831e146200019a578063f2fde38b14620001c85762000086565b806317fd6c4d146200008b578063715018a614620000bb578063800fb83f14620000d55780638c55174214620000f5575b600080fd5b3480156200009857600080fd5b50620000a3620001f6565b604051620000b2919062000cc3565b60405180910390f35b348015620000c857600080fd5b50620000d3620001fc565b005b620000f36004803603810190620000ed919062000d25565b620002bc565b005b3480156200010257600080fd5b506200012160048036038101906200011b919062000eb9565b62000499565b005b3480156200013057600080fd5b506200013b620006ff565b6040516200014a919062000f64565b60405180910390f35b3480156200016057600080fd5b506200017f600480360381019062000179919062000d25565b62000728565b604051620001919493929190620010ff565b60405180910390f35b348015620001a757600080fd5b50620001c66004803603810190620001c0919062000d25565b62000815565b005b348015620001d557600080fd5b50620001f46004803603810190620001ee919062001184565b62000a1b565b005b60025481565b6200020662000b1e565b73ffffffffffffffffffffffffffffffffffffffff1662000226620006ff565b73ffffffffffffffffffffffffffffffffffffffff16146200027f576040517f08c379a0000000000000000000000000000000000000000000000000000000008152600401620002769062001206565b60405180910390fd5b6040517f08c379a0000000000000000000000000000000000000000000000000000000008152600401620002b39062001278565b60405180910390fd5b60006002811115620002d357620002d262001014565b5b6001600083815260200190815260200160002060020160009054906101000a900460ff1660028111156200030c576200030b62001014565b5b146200034f576040517f08c379a0000000000000000000000000000000000000000000000000000000008152600401620003469062001310565b60405180910390fd5b34600160008381526020019081526020016000206001015414620003aa576040517f08c379a0000000000000000000000000000000000000000000000000000000008152600401620003a19062001382565b60405180910390fd5b600180600083815260200190815260200160002060020160006101000a81548160ff02191690836002811115620003e657620003e562001014565b5b02179055507fa4035636e99f06b7651a604c1019fa4e8779fe68ef27eeb74dff2de348f6199b816001600084815260200190815260200160002060020160009054906101000a900460ff16600281111562000446576200044562001014565b5b6001600085815260200190815260200160002060020160019054906101000a900473ffffffffffffffffffffffffffffffffffffffff166040516200048e93929190620013a4565b60405180910390a150565b620004a362000b1e565b73ffffffffffffffffffffffffffffffffffffffff16620004c3620006ff565b73ffffffffffffffffffffffffffffffffffffffff16146200051c576040517f08c379a0000000000000000000000000000000000000000000000000000000008152600401620005139062001206565b60405180910390fd5b60003082600254604051620005319062000bea565b6200053f939291906200141a565b604051809103906000f0801580156200055c573d6000803e3d6000fd5b5090506040518060800160405280848152602001838152602001600060028111156200058d576200058c62001014565b5b81526020018273ffffffffffffffffffffffffffffffffffffffff168152506001600060025481526020019081526020016000206000820151816000019080519060200190620005df92919062000bf8565b506020820151816001015560408201518160020160006101000a81548160ff0219169083600281111562000618576200061762001014565b5b021790555060608201518160020160016101000a81548173ffffffffffffffffffffffffffffffffffffffff021916908373ffffffffffffffffffffffffffffffffffffffff1602179055509050507fa4035636e99f06b7651a604c1019fa4e8779fe68ef27eeb74dff2de348f6199b60025460016000600254815260200190815260200160002060020160009054906101000a900460ff166002811115620006c657620006c562001014565b5b83604051620006d893929190620013a4565b60405180910390a160026000815480929190620006f59062001486565b9190505550505050565b60008060009054906101000a900473ffffffffffffffffffffffffffffffffffffffff16905090565b60016020528060005260406000206000915090508060000180546200074d9062001502565b80601f01602080910402602001604051908101604052809291908181526020018280546200077b9062001502565b8015620007cc5780601f10620007a057610100808354040283529160200191620007cc565b820191906000526020600020905b815481529060010190602001808311620007ae57829003601f168201915b5050505050908060010154908060020160009054906101000a900460ff16908060020160019054906101000a900473ffffffffffffffffffffffffffffffffffffffff16905084565b6200081f62000b1e565b73ffffffffffffffffffffffffffffffffffffffff166200083f620006ff565b73ffffffffffffffffffffffffffffffffffffffff161462000898576040517f08c379a00000000000000000000000000000000000000000000000000000000081526004016200088f9062001206565b60405180910390fd5b60016002811115620008af57620008ae62001014565b5b6001600083815260200190815260200160002060020160009054906101000a900460ff166002811115620008e857620008e762001014565b5b146200092b576040517f08c379a0000000000000000000000000000000000000000000000000000000008152600401620009229062001587565b60405180910390fd5b60026001600083815260200190815260200160002060020160006101000a81548160ff0219169083600281111562000968576200096762001014565b5b02179055507fa4035636e99f06b7651a604c1019fa4e8779fe68ef27eeb74dff2de348f6199b816001600084815260200190815260200160002060020160009054906101000a900460ff166002811115620009c857620009c762001014565b5b6001600085815260200190815260200160002060020160019054906101000a900473ffffffffffffffffffffffffffffffffffffffff1660405162000a1093929190620013a4565b60405180910390a150565b62000a2562000b1e565b73ffffffffffffffffffffffffffffffffffffffff1662000a45620006ff565b73ffffffffffffffffffffffffffffffffffffffff161462000a9e576040517f08c379a000000000000000000000000000000000000000000000000000000000815260040162000a959062001206565b60405180910390fd5b600073ffffffffffffffffffffffffffffffffffffffff168173ffffffffffffffffffffffffffffffffffffffff160362000b10576040517f08c379a000000000000000000000000000000000000000000000000000000000815260040162000b07906200161f565b60405180910390fd5b62000b1b8162000b26565b50565b600033905090565b60008060009054906101000a900473ffffffffffffffffffffffffffffffffffffffff169050816000806101000a81548173ffffffffffffffffffffffffffffffffffffffff021916908373ffffffffffffffffffffffffffffffffffffffff1602179055508173ffffffffffffffffffffffffffffffffffffffff168173ffffffffffffffffffffffffffffffffffffffff167f8be0079c531659141344cd1fd0a4f28419497f9722a3daafe3b4186f6b6457e060405160405180910390a35050565b610779806200164283390190565b82805462000c069062001502565b90600052602060002090601f01602090048101928262000c2a576000855562000c76565b82601f1062000c4557805160ff191683800117855562000c76565b8280016001018555821562000c76579182015b8281111562000c7557825182559160200191906001019062000c58565b5b50905062000c85919062000c89565b5090565b5b8082111562000ca457600081600090555060010162000c8a565b5090565b6000819050919050565b62000cbd8162000ca8565b82525050565b600060208201905062000cda600083018462000cb2565b92915050565b6000604051905090565b600080fd5b600080fd5b62000cff8162000ca8565b811462000d0b57600080fd5b50565b60008135905062000d1f8162000cf4565b92915050565b60006020828403121562000d3e5762000d3d62000cea565b5b600062000d4e8482850162000d0e565b91505092915050565b600080fd5b600080fd5b6000601f19601f8301169050919050565b7f4e487b7100000000000000000000000000000000000000000000000000000000600052604160045260246000fd5b62000dac8262000d61565b810181811067ffffffffffffffff8211171562000dce5762000dcd62000d72565b5b80604052505050565b600062000de362000ce0565b905062000df1828262000da1565b919050565b600067ffffffffffffffff82111562000e145762000e1362000d72565b5b62000e1f8262000d61565b9050602081019050919050565b82818337600083830152505050565b600062000e5262000e4c8462000df6565b62000dd7565b90508281526020810184848401111562000e715762000e7062000d5c565b5b62000e7e84828562000e2c565b509392505050565b600082601f83011262000e9e5762000e9d62000d57565b5b813562000eb084826020860162000e3b565b91505092915050565b6000806040838503121562000ed35762000ed262000cea565b5b600083013567ffffffffffffffff81111562000ef45762000ef362000cef565b5b62000f028582860162000e86565b925050602062000f158582860162000d0e565b9150509250929050565b600073ffffffffffffffffffffffffffffffffffffffff82169050919050565b600062000f4c8262000f1f565b9050919050565b62000f5e8162000f3f565b82525050565b600060208201905062000f7b600083018462000f53565b92915050565b600081519050919050565b600082825260208201905092915050565b60005b8381101562000fbd57808201518184015260208101905062000fa0565b8381111562000fcd576000848401525b50505050565b600062000fe08262000f81565b62000fec818562000f8c565b935062000ffe81856020860162000f9d565b620010098162000d61565b840191505092915050565b7f4e487b7100000000000000000000000000000000000000000000000000000000600052602160045260246000fd5b6003811062001057576200105662001014565b5b50565b60008190506200106a8262001043565b919050565b60006200107c826200105a565b9050919050565b6200108e816200106f565b82525050565b6000819050919050565b6000620010bf620010b9620010b38462000f1f565b62001094565b62000f1f565b9050919050565b6000620010d3826200109e565b9050919050565b6000620010e782620010c6565b9050919050565b620010f981620010da565b82525050565b600060808201905081810360008301526200111b818762000fd3565b90506200112c602083018662000cb2565b6200113b604083018562001083565b6200114a6060830184620010ee565b95945050505050565b6200115e8162000f3f565b81146200116a57600080fd5b50565b6000813590506200117e8162001153565b92915050565b6000602082840312156200119d576200119c62000cea565b5b6000620011ad848285016200116d565b91505092915050565b7f4f776e61626c653a2063616c6c6572206973206e6f7420746865206f776e6572600082015250565b6000620011ee60208362000f8c565b9150620011fb82620011b6565b602082019050919050565b600060208201905081810360008301526200122181620011df565b9050919050565b7f63616e27742072656e6f756e63654f776e657273686970206865726500000000600082015250565b600062001260601c8362000f8c565b91506200126d8262001228565b602082019050919050565b60006020820190508181036000830152620012938162001251565b9050919050565b7f4572726f3a206974656d206a6120666f69207061676f206f7520656e7472656760008201527f7565210000000000000000000000000000000000000000000000000000000000602082015250565b6000620012f860238362000f8c565b915062001305826200129a565b604082019050919050565b600060208201905081810360008301526200132b81620012e9565b9050919050565b7f4572726f3a2076616c6f7220696e636f727265746f2100000000000000000000600082015250565b60006200136a60168362000f8c565b9150620013778262001332565b602082019050919050565b600060208201905081810360008301526200139d816200135b565b9050919050565b6000606082019050620013bb600083018662000cb2565b620013ca602083018562000cb2565b620013d9604083018462000f53565b949350505050565b6000620013ee826200109e565b9050919050565b60006200140282620013e1565b9050919050565b6200141481620013f5565b82525050565b600060608201905062001431600083018662001409565b62001440602083018562000cb2565b6200144f604083018462000cb2565b949350505050565b7f4e487b7100000000000000000000000000000000000000000000000000000000600052601160045260246000fd5b6000620014938262000ca8565b91507fffffffffffffffffffffffffffffffffffffffffffffffffffffffffffffffff8203620014c857620014c762001457565b5b600182019050919050565b7f4e487b7100000000000000000000000000000000000000000000000000000000600052602260045260246000fd5b600060028204905060018216806200151b57607f821691505b602082108103620015315762001530620014d3565b5b50919050565b7f4572726f3a206974656d2061696e6461206e616f20666f69207061676f210000600082015250565b60006200156f601e8362000f8c565b91506200157c8262001537565b602082019050919050565b60006020820190508181036000830152620015a28162001560565b9050919050565b7f4f776e61626c653a206e6577206f776e657220697320746865207a65726f206160008201527f6464726573730000000000000000000000000000000000000000000000000000602082015250565b60006200160760268362000f8c565b91506200161482620015a9565b604082019050919050565b600060208201905081810360008301526200163a81620015f8565b905091905056fe608060405234801561001057600080fd5b5060405161077938038061077983398181016040528101906100329190610134565b8160008190555082600360006101000a81548173ffffffffffffffffffffffffffffffffffffffff021916908373ffffffffffffffffffffffffffffffffffffffff16021790555080600281905550505050610187565b600080fd5b600073ffffffffffffffffffffffffffffffffffffffff82169050919050565b60006100b98261008e565b9050919050565b60006100cb826100ae565b9050919050565b6100db816100c0565b81146100e657600080fd5b50565b6000815190506100f8816100d2565b92915050565b6000819050919050565b610111816100fe565b811461011c57600080fd5b50565b60008151905061012e81610108565b92915050565b60008060006060848603121561014d5761014c610089565b5b600061015b868287016100e9565b935050602061016c8682870161011f565b925050604061017d8682870161011f565b9150509250925092565b6105e3806101966000396000f3fe6080604052600436106100385760003560e01c806365f1ba171461005157806386d79bcc1461007c578063a37626fc146100a757610047565b36610047576100456100d2565b005b61004f6100d2565b005b34801561005d57600080fd5b506100666102d6565b6040516100739190610301565b60405180910390f35b34801561008857600080fd5b506100916102dc565b60405161009e9190610301565b60405180910390f35b3480156100b357600080fd5b506100bc6102e2565b6040516100c99190610301565b60405180910390f35b600060015414610117576040517f08c379a000000000000000000000000000000000000000000000000000000000815260040161010e90610379565b60405180910390fd5b346000541461015b576040517f08c379a00000000000000000000000000000000000000000000000000000000081526004016101529061040b565b60405180910390fd5b346001600082825461016d919061045a565b925050819055506000600360009054906101000a900473ffffffffffffffffffffffffffffffffffffffff1673ffffffffffffffffffffffffffffffffffffffff16346002546040516024016101c39190610301565b6040516020818303038152906040527f800fb83f000000000000000000000000000000000000000000000000000000007bffffffffffffffffffffffffffffffffffffffffffffffffffffffff19166020820180517bffffffffffffffffffffffffffffffffffffffffffffffffffffffff838183161783525050505060405161024d919061052a565b60006040518083038185875af1925050503d806000811461028a576040519150601f19603f3d011682016040523d82523d6000602084013e61028f565b606091505b50509050806102d3576040517f08c379a00000000000000000000000000000000000000000000000000000000081526004016102ca9061058d565b60405180910390fd5b50565b60005481565b60015481565b60025481565b6000819050919050565b6102fb816102e8565b82525050565b600060208201905061031660008301846102f2565b92915050565b600082825260208201905092915050565b7f4572726f3a206974656d206a6120666f69207061676f00000000000000000000600082015250565b600061036360168361031c565b915061036e8261032d565b602082019050919050565b6000602082019050818103600083015261039281610356565b9050919050565b7f4572726f3a20736f6d656e746520706167616d656e746f20696e746569726f2060008201527f7065726d697469646f0000000000000000000000000000000000000000000000602082015250565b60006103f560298361031c565b915061040082610399565b604082019050919050565b60006020820190508181036000830152610424816103e8565b9050919050565b7f4e487b7100000000000000000000000000000000000000000000000000000000600052601160045260246000fd5b6000610465826102e8565b9150610470836102e8565b9250827fffffffffffffffffffffffffffffffffffffffffffffffffffffffffffffffff038211156104a5576104a461042b565b5b828201905092915050565b600081519050919050565b600081905092915050565b60005b838110156104e45780820151818401526020810190506104c9565b838111156104f3576000848401525b50505050565b6000610504826104b0565b61050e81856104bb565b935061051e8185602086016104c6565b80840191505092915050565b600061053682846104f9565b915081905092915050565b7f4572726f3a207472616e736163616f2063616e63656c61646100000000000000600082015250565b600061057760198361031c565b915061058282610541565b602082019050919050565b600060208201905081810360008301526105a68161056a565b905091905056fea2646970667358221220a5c0f8ae0e44082576eeee12ecf83f3bc4cb5b9ef8973c297e443f82b0e6273f64736f6c634300080e0033a2646970667358221220531bdbe852a09c925b275939a30ee07a361d6b426bade65fd80f16f29c6dae6a64736f6c634300080e0033",
  "immutableReferences": {},
  "source": "//SPDX-License-Identifier: MIT\r\npragma solidity ^0.8.1;\r\nimport \"./Item.sol\";\r\nimport \"../client/node_modules/@openzeppelin/contracts/access/Ownable.sol\";\r\n//\r\ncontract ItemManager is Ownable {\r\n    \r\n\r\n    enum SupplyChainState{\r\n        Created, Paid, Delivered\r\n    }\r\n\r\n    struct S_item {\r\n        string _identifier;\r\n        uint _itemPrice;\r\n        SupplyChainState _state;\r\n        Item _item;\r\n    }\r\n\r\n    mapping (uint => S_item) public sv_items;\r\n    uint public sv_itemIndex;\r\n    \r\n    event SupplyChainStep(uint _itemIndex, uint _step, address _address);\r\n\r\n    function createItem(string memory _identifier, uint _itemPrice) public onlyOwner {\r\n        Item item = new Item(this, _itemPrice, sv_itemIndex);\r\n        sv_items[sv_itemIndex] = S_item(_identifier, _itemPrice, SupplyChainState.Created, item);\r\n        emit SupplyChainStep(sv_itemIndex, uint(sv_items[sv_itemIndex]._state), address(item));\r\n        sv_itemIndex++;\r\n    }\r\n\r\n    function triggerPayment(uint _itemIndex) public payable {\r\n        require(sv_items[_itemIndex]._state == SupplyChainState.Created, \"Erro: item ja foi pago ou entregue!\");\r\n        require(sv_items[_itemIndex]._itemPrice == msg.value, \"Erro: valor incorreto!\");\r\n        sv_items[_itemIndex]._state = SupplyChainState.Paid;\r\n        emit SupplyChainStep(_itemIndex, uint(sv_items[_itemIndex]._state), address(sv_items[_itemIndex]._item));\r\n    }\r\n\r\n    function triggerDelivery(uint _itemIndex) public onlyOwner {\r\n        require(sv_items[_itemIndex]._state == SupplyChainState.Paid, \"Erro: item ainda nao foi pago!\");\r\n        sv_items[_itemIndex]._state = SupplyChainState.Delivered;\r\n        emit SupplyChainStep(_itemIndex, uint(sv_items[_itemIndex]._state), address(sv_items[_itemIndex]._item));\r\n    }\r\n\r\n    function renounceOwnership() public view override onlyOwner {\r\n        revert(\"can't renounceOwnership here\");\r\n    }\r\n\r\n\r\n}",
  "sourcePath": "D:\\Dev\\Estudos\\BlockchainDev\\UdemyCourseLab2-SupplyChain\\contracts\\ItemManager.sol",
  "compiler": {
    "name": "solc",
    "version": "0.8.14+commit.80d49f37.Emscripten.clang"
  },
  "schemaVersion": "3.4.7",
  "updatedAt": "2022-06-06T01:09:49.883Z",
  "devdoc": {
    "kind": "dev",
    "methods": {
      "owner()": {
        "details": "Returns the address of the current owner."
      },
      "renounceOwnership()": {
        "details": "Leaves the contract without owner. It will not be possible to call `onlyOwner` functions anymore. Can only be called by the current owner. NOTE: Renouncing ownership will leave the contract without an owner, thereby removing any functionality that is only available to the owner."
      },
      "transferOwnership(address)": {
        "details": "Transfers ownership of the contract to a new account (`newOwner`). Can only be called by the current owner."
      }
    },
    "version": 1
  },
  "userdoc": {
    "kind": "user",
    "methods": {},
    "version": 1
  }
}