{
  "contractName": "ItemManager",
  "abi": [
    {
      "anonymous": false,
      "inputs": [
        {
          "indexed": true,
          "internalType": "address",
          "name": "previousOwner",
          "type": "address"
        },
        {
          "indexed": true,
          "internalType": "address",
          "name": "newOwner",
          "type": "address"
        }
      ],
      "name": "OwnershipTransferred",
      "type": "event"
    },
    {
      "anonymous": false,
      "inputs": [
        {
          "indexed": false,
          "internalType": "uint256",
          "name": "_itemIndex",
          "type": "uint256"
        },
        {
          "indexed": false,
          "internalType": "uint256",
          "name": "_step",
          "type": "uint256"
        },
        {
          "indexed": false,
          "internalType": "address",
          "name": "_address",
          "type": "address"
        }
      ],
      "name": "SupplyChainStep",
      "type": "event"
    },
    {
      "inputs": [],
      "name": "owner",
      "outputs": [
        {
          "internalType": "address",
          "name": "",
          "type": "address"
        }
      ],
      "stateMutability": "view",
      "type": "function",
      "constant": true
    },
    {
      "inputs": [],
      "name": "sv_itemIndex",
      "outputs": [
        {
          "internalType": "uint256",
          "name": "",
          "type": "uint256"
        }
      ],
      "stateMutability": "view",
      "type": "function",
      "constant": true
    },
    {
      "inputs": [
        {
          "internalType": "uint256",
          "name": "",
          "type": "uint256"
        }
      ],
      "name": "sv_items",
      "outputs": [
        {
          "internalType": "string",
          "name": "_identifier",
          "type": "string"
        },
        {
          "internalType": "uint256",
          "name": "_itemPrice",
          "type": "uint256"
        },
        {
          "internalType": "enum ItemManager.SupplyChainState",
          "name": "_state",
          "type": "uint8"
        },
        {
          "internalType": "contract Item",
          "name": "_item",
          "type": "address"
        }
      ],
      "stateMutability": "view",
      "type": "function",
      "constant": true
    },
    {
      "inputs": [
        {
          "internalType": "address",
          "name": "newOwner",
          "type": "address"
        }
      ],
      "name": "transferOwnership",
      "outputs": [],
      "stateMutability": "nonpayable",
      "type": "function"
    },
    {
      "inputs": [
        {
          "internalType": "string",
          "name": "_identifier",
          "type": "string"
        },
        {
          "internalType": "uint256",
          "name": "_itemPrice",
          "type": "uint256"
        }
      ],
      "name": "createItem",
      "outputs": [],
      "stateMutability": "nonpayable",
      "type": "function"
    },
    {
      "inputs": [
        {
          "internalType": "uint256",
          "name": "_itemIndex",
          "type": "uint256"
        }
      ],
      "name": "triggerPayment",
      "outputs": [],
      "stateMutability": "payable",
      "type": "function",
      "payable": true
    },
    {
      "inputs": [
        {
          "internalType": "uint256",
          "name": "_itemIndex",
          "type": "uint256"
        }
      ],
      "name": "triggerDelivery",
      "outputs": [],
      "stateMutability": "nonpayable",
      "type": "function"
    },
    {
      "inputs": [],
      "name": "renounceOwnership",
      "outputs": [],
      "stateMutability": "view",
      "type": "function",
      "constant": true
    }
  ],
  "bytecode": "0x608060405234801561001057600080fd5b5061002d61002261003260201b60201c565b61003a60201b60201c565b6100fe565b600033905090565b60008060009054906101000a900473ffffffffffffffffffffffffffffffffffffffff169050816000806101000a81548173ffffffffffffffffffffffffffffffffffffffff021916908373ffffffffffffffffffffffffffffffffffffffff1602179055508173ffffffffffffffffffffffffffffffffffffffff168173ffffffffffffffffffffffffffffffffffffffff167f8be0079c531659141344cd1fd0a4f28419497f9722a3daafe3b4186f6b6457e060405160405180910390a35050565b611fe88061010d6000396000f3fe608060405260043610620000865760003560e01c80638da5cb5b11620000555780638da5cb5b1462000123578063be36f9a81462000153578063cd31831e146200019a578063f2fde38b14620001c85762000086565b806317fd6c4d146200008b578063715018a614620000bb578063800fb83f14620000d55780638c55174214620000f5575b600080fd5b3480156200009857600080fd5b50620000a3620001f6565b604051620000b2919062000c0c565b60405180910390f35b348015620000c857600080fd5b50620000d3620001fc565b005b620000f36004803603810190620000ed919062000c6e565b620002bc565b005b3480156200010257600080fd5b506200012160048036038101906200011b919062000e02565b62000499565b005b3480156200013057600080fd5b506200013b620006f8565b6040516200014a919062000ead565b60405180910390f35b3480156200016057600080fd5b506200017f600480360381019062000179919062000c6e565b62000721565b60405162000191949392919062001048565b60405180910390f35b348015620001a757600080fd5b50620001c66004803603810190620001c0919062000c6e565b6200080e565b005b348015620001d557600080fd5b50620001f46004803603810190620001ee9190620010cd565b62000a14565b005b60025481565b6200020662000b17565b73ffffffffffffffffffffffffffffffffffffffff1662000226620006f8565b73ffffffffffffffffffffffffffffffffffffffff16146200027f576040517f08c379a000000000000000000000000000000000000000000000000000000000815260040162000276906200114f565b60405180910390fd5b6040517f08c379a0000000000000000000000000000000000000000000000000000000008152600401620002b390620011c1565b60405180910390fd5b60006002811115620002d357620002d262000f5d565b5b6001600083815260200190815260200160002060020160009054906101000a900460ff1660028111156200030c576200030b62000f5d565b5b146200034f576040517f08c379a0000000000000000000000000000000000000000000000000000000008152600401620003469062001259565b60405180910390fd5b34600160008381526020019081526020016000206001015414620003aa576040517f08c379a0000000000000000000000000000000000000000000000000000000008152600401620003a190620012cb565b60405180910390fd5b600180600083815260200190815260200160002060020160006101000a81548160ff02191690836002811115620003e657620003e562000f5d565b5b02179055507fa4035636e99f06b7651a604c1019fa4e8779fe68ef27eeb74dff2de348f6199b816001600084815260200190815260200160002060020160009054906101000a900460ff16600281111562000446576200044562000f5d565b5b6001600085815260200190815260200160002060020160019054906101000a900473ffffffffffffffffffffffffffffffffffffffff166040516200048e93929190620012ed565b60405180910390a150565b620004a362000b17565b73ffffffffffffffffffffffffffffffffffffffff16620004c3620006f8565b73ffffffffffffffffffffffffffffffffffffffff16146200051c576040517f08c379a000000000000000000000000000000000000000000000000000000000815260040162000513906200114f565b60405180910390fd5b60003082600254604051620005319062000be3565b6200053f9392919062001363565b604051809103906000f0801580156200055c573d6000803e3d6000fd5b5090506040518060800160405280848152602001838152602001600060028111156200058d576200058c62000f5d565b5b81526020018273ffffffffffffffffffffffffffffffffffffffff168152506001600060025481526020019081526020016000206000820151816000019081620005d89190620015cc565b506020820151816001015560408201518160020160006101000a81548160ff0219169083600281111562000611576200061062000f5d565b5b021790555060608201518160020160016101000a81548173ffffffffffffffffffffffffffffffffffffffff021916908373ffffffffffffffffffffffffffffffffffffffff1602179055509050507fa4035636e99f06b7651a604c1019fa4e8779fe68ef27eeb74dff2de348f6199b60025460016000600254815260200190815260200160002060020160009054906101000a900460ff166002811115620006bf57620006be62000f5d565b5b83604051620006d193929190620012ed565b60405180910390a160026000815480929190620006ee90620016e2565b9190505550505050565b60008060009054906101000a900473ffffffffffffffffffffffffffffffffffffffff16905090565b60016020528060005260406000206000915090508060000180546200074690620013cf565b80601f01602080910402602001604051908101604052809291908181526020018280546200077490620013cf565b8015620007c55780601f106200079957610100808354040283529160200191620007c5565b820191906000526020600020905b815481529060010190602001808311620007a757829003601f168201915b5050505050908060010154908060020160009054906101000a900460ff16908060020160019054906101000a900473ffffffffffffffffffffffffffffffffffffffff16905084565b6200081862000b17565b73ffffffffffffffffffffffffffffffffffffffff1662000838620006f8565b73ffffffffffffffffffffffffffffffffffffffff161462000891576040517f08c379a000000000000000000000000000000000000000000000000000000000815260040162000888906200114f565b60405180910390fd5b60016002811115620008a857620008a762000f5d565b5b6001600083815260200190815260200160002060020160009054906101000a900460ff166002811115620008e157620008e062000f5d565b5b1462000924576040517f08c379a00000000000000000000000000000000000000000000000000000000081526004016200091b906200177f565b60405180910390fd5b60026001600083815260200190815260200160002060020160006101000a81548160ff0219169083600281111562000961576200096062000f5d565b5b02179055507fa4035636e99f06b7651a604c1019fa4e8779fe68ef27eeb74dff2de348f6199b816001600084815260200190815260200160002060020160009054906101000a900460ff166002811115620009c157620009c062000f5d565b5b6001600085815260200190815260200160002060020160019054906101000a900473ffffffffffffffffffffffffffffffffffffffff1660405162000a0993929190620012ed565b60405180910390a150565b62000a1e62000b17565b73ffffffffffffffffffffffffffffffffffffffff1662000a3e620006f8565b73ffffffffffffffffffffffffffffffffffffffff161462000a97576040517f08c379a000000000000000000000000000000000000000000000000000000000815260040162000a8e906200114f565b60405180910390fd5b600073ffffffffffffffffffffffffffffffffffffffff168173ffffffffffffffffffffffffffffffffffffffff160362000b09576040517f08c379a000000000000000000000000000000000000000000000000000000000815260040162000b009062001817565b60405180910390fd5b62000b148162000b1f565b50565b600033905090565b60008060009054906101000a900473ffffffffffffffffffffffffffffffffffffffff169050816000806101000a81548173ffffffffffffffffffffffffffffffffffffffff021916908373ffffffffffffffffffffffffffffffffffffffff1602179055508173ffffffffffffffffffffffffffffffffffffffff168173ffffffffffffffffffffffffffffffffffffffff167f8be0079c531659141344cd1fd0a4f28419497f9722a3daafe3b4186f6b6457e060405160405180910390a35050565b610779806200183a83390190565b6000819050919050565b62000c068162000bf1565b82525050565b600060208201905062000c23600083018462000bfb565b92915050565b6000604051905090565b600080fd5b600080fd5b62000c488162000bf1565b811462000c5457600080fd5b50565b60008135905062000c688162000c3d565b92915050565b60006020828403121562000c875762000c8662000c33565b5b600062000c978482850162000c57565b91505092915050565b600080fd5b600080fd5b6000601f19601f8301169050919050565b7f4e487b7100000000000000000000000000000000000000000000000000000000600052604160045260246000fd5b62000cf58262000caa565b810181811067ffffffffffffffff8211171562000d175762000d1662000cbb565b5b80604052505050565b600062000d2c62000c29565b905062000d3a828262000cea565b919050565b600067ffffffffffffffff82111562000d5d5762000d5c62000cbb565b5b62000d688262000caa565b9050602081019050919050565b82818337600083830152505050565b600062000d9b62000d958462000d3f565b62000d20565b90508281526020810184848401111562000dba5762000db962000ca5565b5b62000dc784828562000d75565b509392505050565b600082601f83011262000de75762000de662000ca0565b5b813562000df984826020860162000d84565b91505092915050565b6000806040838503121562000e1c5762000e1b62000c33565b5b600083013567ffffffffffffffff81111562000e3d5762000e3c62000c38565b5b62000e4b8582860162000dcf565b925050602062000e5e8582860162000c57565b9150509250929050565b600073ffffffffffffffffffffffffffffffffffffffff82169050919050565b600062000e958262000e68565b9050919050565b62000ea78162000e88565b82525050565b600060208201905062000ec4600083018462000e9c565b92915050565b600081519050919050565b600082825260208201905092915050565b60005b8381101562000f0657808201518184015260208101905062000ee9565b8381111562000f16576000848401525b50505050565b600062000f298262000eca565b62000f35818562000ed5565b935062000f4781856020860162000ee6565b62000f528162000caa565b840191505092915050565b7f4e487b7100000000000000000000000000000000000000000000000000000000600052602160045260246000fd5b6003811062000fa05762000f9f62000f5d565b5b50565b600081905062000fb38262000f8c565b919050565b600062000fc58262000fa3565b9050919050565b62000fd78162000fb8565b82525050565b6000819050919050565b6000620010086200100262000ffc8462000e68565b62000fdd565b62000e68565b9050919050565b60006200101c8262000fe7565b9050919050565b600062001030826200100f565b9050919050565b620010428162001023565b82525050565b6000608082019050818103600083015262001064818762000f1c565b905062001075602083018662000bfb565b62001084604083018562000fcc565b62001093606083018462001037565b95945050505050565b620010a78162000e88565b8114620010b357600080fd5b50565b600081359050620010c7816200109c565b92915050565b600060208284031215620010e657620010e562000c33565b5b6000620010f684828501620010b6565b91505092915050565b7f4f776e61626c653a2063616c6c6572206973206e6f7420746865206f776e6572600082015250565b60006200113760208362000ed5565b91506200114482620010ff565b602082019050919050565b600060208201905081810360008301526200116a8162001128565b9050919050565b7f63616e27742072656e6f756e63654f776e657273686970206865726500000000600082015250565b6000620011a9601c8362000ed5565b9150620011b68262001171565b602082019050919050565b60006020820190508181036000830152620011dc816200119a565b9050919050565b7f4572726f3a206974656d206a6120666f69207061676f206f7520656e7472656760008201527f7565210000000000000000000000000000000000000000000000000000000000602082015250565b60006200124160238362000ed5565b91506200124e82620011e3565b604082019050919050565b60006020820190508181036000830152620012748162001232565b9050919050565b7f4572726f3a2076616c6f7220696e636f727265746f2100000000000000000000600082015250565b6000620012b360168362000ed5565b9150620012c0826200127b565b602082019050919050565b60006020820190508181036000830152620012e681620012a4565b9050919050565b600060608201905062001304600083018662000bfb565b62001313602083018562000bfb565b62001322604083018462000e9c565b949350505050565b6000620013378262000fe7565b9050919050565b60006200134b826200132a565b9050919050565b6200135d816200133e565b82525050565b60006060820190506200137a600083018662001352565b62001389602083018562000bfb565b62001398604083018462000bfb565b949350505050565b7f4e487b7100000000000000000000000000000000000000000000000000000000600052602260045260246000fd5b60006002820490506001821680620013e857607f821691505b602082108103620013fe57620013fd620013a0565b5b50919050565b60008190508160005260206000209050919050565b60006020601f8301049050919050565b600082821b905092915050565b600060088302620014687fffffffffffffffffffffffffffffffffffffffffffffffffffffffffffffffff8262001429565b62001474868362001429565b95508019841693508086168417925050509392505050565b6000620014ad620014a7620014a18462000bf1565b62000fdd565b62000bf1565b9050919050565b6000819050919050565b620014c9836200148c565b620014e1620014d882620014b4565b84845462001436565b825550505050565b600090565b620014f8620014e9565b62001505818484620014be565b505050565b5b818110156200152d5762001521600082620014ee565b6001810190506200150b565b5050565b601f8211156200157c57620015468162001404565b620015518462001419565b8101602085101562001561578190505b62001579620015708562001419565b8301826200150a565b50505b505050565b600082821c905092915050565b6000620015a16000198460080262001581565b1980831691505092915050565b6000620015bc83836200158e565b9150826002028217905092915050565b620015d78262000eca565b67ffffffffffffffff811115620015f357620015f262000cbb565b5b620015ff8254620013cf565b6200160c82828562001531565b600060209050601f8311600181146200164457600084156200162f578287015190505b6200163b8582620015ae565b865550620016ab565b601f198416620016548662001404565b60005b828110156200167e5784890151825560018201915060208501945060208101905062001657565b868310156200169e57848901516200169a601f8916826200158e565b8355505b6001600288020188555050505b505050505050565b7f4e487b7100000000000000000000000000000000000000000000000000000000600052601160045260246000fd5b6000620016ef8262000bf1565b91507fffffffffffffffffffffffffffffffffffffffffffffffffffffffffffffffff8203620017245762001723620016b3565b5b600182019050919050565b7f4572726f3a206974656d2061696e6461206e616f20666f69207061676f210000600082015250565b600062001767601e8362000ed5565b915062001774826200172f565b602082019050919050565b600060208201905081810360008301526200179a8162001758565b9050919050565b7f4f776e61626c653a206e6577206f776e657220697320746865207a65726f206160008201527f6464726573730000000000000000000000000000000000000000000000000000602082015250565b6000620017ff60268362000ed5565b91506200180c82620017a1565b604082019050919050565b600060208201905081810360008301526200183281620017f0565b905091905056fe608060405234801561001057600080fd5b5060405161077938038061077983398181016040528101906100329190610134565b8160008190555082600360006101000a81548173ffffffffffffffffffffffffffffffffffffffff021916908373ffffffffffffffffffffffffffffffffffffffff16021790555080600281905550505050610187565b600080fd5b600073ffffffffffffffffffffffffffffffffffffffff82169050919050565b60006100b98261008e565b9050919050565b60006100cb826100ae565b9050919050565b6100db816100c0565b81146100e657600080fd5b50565b6000815190506100f8816100d2565b92915050565b6000819050919050565b610111816100fe565b811461011c57600080fd5b50565b60008151905061012e81610108565b92915050565b60008060006060848603121561014d5761014c610089565b5b600061015b868287016100e9565b935050602061016c8682870161011f565b925050604061017d8682870161011f565b9150509250925092565b6105e3806101966000396000f3fe6080604052600436106100385760003560e01c806365f1ba171461005157806386d79bcc1461007c578063a37626fc146100a757610047565b36610047576100456100d2565b005b61004f6100d2565b005b34801561005d57600080fd5b506100666102d6565b6040516100739190610301565b60405180910390f35b34801561008857600080fd5b506100916102dc565b60405161009e9190610301565b60405180910390f35b3480156100b357600080fd5b506100bc6102e2565b6040516100c99190610301565b60405180910390f35b600060015414610117576040517f08c379a000000000000000000000000000000000000000000000000000000000815260040161010e90610379565b60405180910390fd5b346000541461015b576040517f08c379a00000000000000000000000000000000000000000000000000000000081526004016101529061040b565b60405180910390fd5b346001600082825461016d919061045a565b925050819055506000600360009054906101000a900473ffffffffffffffffffffffffffffffffffffffff1673ffffffffffffffffffffffffffffffffffffffff16346002546040516024016101c39190610301565b6040516020818303038152906040527f800fb83f000000000000000000000000000000000000000000000000000000007bffffffffffffffffffffffffffffffffffffffffffffffffffffffff19166020820180517bffffffffffffffffffffffffffffffffffffffffffffffffffffffff838183161783525050505060405161024d919061052a565b60006040518083038185875af1925050503d806000811461028a576040519150601f19603f3d011682016040523d82523d6000602084013e61028f565b606091505b50509050806102d3576040517f08c379a00000000000000000000000000000000000000000000000000000000081526004016102ca9061058d565b60405180910390fd5b50565b60005481565b60015481565b60025481565b6000819050919050565b6102fb816102e8565b82525050565b600060208201905061031660008301846102f2565b92915050565b600082825260208201905092915050565b7f4572726f3a206974656d206a6120666f69207061676f00000000000000000000600082015250565b600061036360168361031c565b915061036e8261032d565b602082019050919050565b6000602082019050818103600083015261039281610356565b9050919050565b7f4572726f3a20736f6d656e746520706167616d656e746f20696e746569726f2060008201527f7065726d697469646f0000000000000000000000000000000000000000000000602082015250565b60006103f560298361031c565b915061040082610399565b604082019050919050565b60006020820190508181036000830152610424816103e8565b9050919050565b7f4e487b7100000000000000000000000000000000000000000000000000000000600052601160045260246000fd5b6000610465826102e8565b9150610470836102e8565b9250827fffffffffffffffffffffffffffffffffffffffffffffffffffffffffffffffff038211156104a5576104a461042b565b5b828201905092915050565b600081519050919050565b600081905092915050565b60005b838110156104e45780820151818401526020810190506104c9565b838111156104f3576000848401525b50505050565b6000610504826104b0565b61050e81856104bb565b935061051e8185602086016104c6565b80840191505092915050565b600061053682846104f9565b915081905092915050565b7f4572726f3a207472616e736163616f2063616e63656c61646100000000000000600082015250565b600061057760198361031c565b915061058282610541565b602082019050919050565b600060208201905081810360008301526105a68161056a565b905091905056fea2646970667358221220fe810820bbd39bf166e3b5e8719eb389bfc264bd788a716a6a87188eb3b1137264736f6c634300080f0033a26469706673582212203e3d19ebd30b90279579036e0e47cea208dc419367c4b307b28870b78b30d85f64736f6c634300080f0033",
  "immutableReferences": {},
  "source": "//SPDX-License-Identifier: MIT\r\npragma solidity ^0.8.1;\r\nimport \"./Item.sol\";\r\nimport \"@openzeppelin/contracts/access/Ownable.sol\";\r\n//\r\ncontract ItemManager is Ownable {\r\n    \r\n\r\n    enum SupplyChainState{\r\n        Created, Paid, Delivered\r\n    }\r\n\r\n    struct S_item {\r\n        string _identifier;\r\n        uint _itemPrice;\r\n        SupplyChainState _state;\r\n        Item _item;\r\n    }\r\n\r\n    mapping (uint => S_item) public sv_items;\r\n    uint public sv_itemIndex;\r\n    \r\n    event SupplyChainStep(uint _itemIndex, uint _step, address _address);\r\n\r\n    function createItem(string memory _identifier, uint _itemPrice) public onlyOwner {\r\n        Item item = new Item(this, _itemPrice, sv_itemIndex);\r\n        sv_items[sv_itemIndex] = S_item(_identifier, _itemPrice, SupplyChainState.Created, item);\r\n        emit SupplyChainStep(sv_itemIndex, uint(sv_items[sv_itemIndex]._state), address(item));\r\n        sv_itemIndex++;\r\n    }\r\n\r\n    function triggerPayment(uint _itemIndex) public payable {\r\n        require(sv_items[_itemIndex]._state == SupplyChainState.Created, \"Erro: item ja foi pago ou entregue!\");\r\n        require(sv_items[_itemIndex]._itemPrice == msg.value, \"Erro: valor incorreto!\");\r\n        sv_items[_itemIndex]._state = SupplyChainState.Paid;\r\n        emit SupplyChainStep(_itemIndex, uint(sv_items[_itemIndex]._state), address(sv_items[_itemIndex]._item));\r\n    }\r\n\r\n    function triggerDelivery(uint _itemIndex) public onlyOwner {\r\n        require(sv_items[_itemIndex]._state == SupplyChainState.Paid, \"Erro: item ainda nao foi pago!\");\r\n        sv_items[_itemIndex]._state = SupplyChainState.Delivered;\r\n        emit SupplyChainStep(_itemIndex, uint(sv_items[_itemIndex]._state), address(sv_items[_itemIndex]._item));\r\n    }\r\n\r\n    function renounceOwnership() public view override onlyOwner {\r\n        revert(\"can't renounceOwnership here\");\r\n    }\r\n\r\n\r\n}",
  "sourcePath": "D:\\Dev\\Estudos\\BlockchainDev\\SupplyChainLab\\contracts\\ItemManager.sol",
  "compiler": {
    "name": "solc",
    "version": "0.8.15+commit.e14f2714.Emscripten.clang"
  },
  "schemaVersion": "3.4.7",
  "updatedAt": "2022-06-24T17:57:12.475Z",
  "networkType": "ethereum",
  "devdoc": {
    "kind": "dev",
    "methods": {
      "owner()": {
        "details": "Returns the address of the current owner."
      },
      "renounceOwnership()": {
        "details": "Leaves the contract without owner. It will not be possible to call `onlyOwner` functions anymore. Can only be called by the current owner. NOTE: Renouncing ownership will leave the contract without an owner, thereby removing any functionality that is only available to the owner."
      },
      "transferOwnership(address)": {
        "details": "Transfers ownership of the contract to a new account (`newOwner`). Can only be called by the current owner."
      }
    },
    "version": 1
  },
  "userdoc": {
    "kind": "user",
    "methods": {},
    "version": 1
  }
}