{
  "contractName": "Item",
  "abi": [
    {
      "inputs": [
        {
          "internalType": "contract ItemManager",
          "name": "_parentContract",
          "type": "address"
        },
        {
          "internalType": "uint256",
          "name": "_sv_priceInWei",
          "type": "uint256"
        },
        {
          "internalType": "uint256",
          "name": "_sv_index",
          "type": "uint256"
        }
      ],
      "stateMutability": "nonpayable",
      "type": "constructor"
    },
    {
      "stateMutability": "payable",
      "type": "fallback"
    },
    {
      "inputs": [],
      "name": "sv_index",
      "outputs": [
        {
          "internalType": "uint256",
          "name": "",
          "type": "uint256"
        }
      ],
      "stateMutability": "view",
      "type": "function"
    },
    {
      "inputs": [],
      "name": "sv_priceInWei",
      "outputs": [
        {
          "internalType": "uint256",
          "name": "",
          "type": "uint256"
        }
      ],
      "stateMutability": "view",
      "type": "function"
    },
    {
      "inputs": [],
      "name": "sv_pricePaid",
      "outputs": [
        {
          "internalType": "uint256",
          "name": "",
          "type": "uint256"
        }
      ],
      "stateMutability": "view",
      "type": "function"
    },
    {
      "stateMutability": "payable",
      "type": "receive"
    }
  ],
  "bytecode": "0x608060405234801561001057600080fd5b5060405161077938038061077983398181016040528101906100329190610134565b8160008190555082600360006101000a81548173ffffffffffffffffffffffffffffffffffffffff021916908373ffffffffffffffffffffffffffffffffffffffff16021790555080600281905550505050610187565b600080fd5b600073ffffffffffffffffffffffffffffffffffffffff82169050919050565b60006100b98261008e565b9050919050565b60006100cb826100ae565b9050919050565b6100db816100c0565b81146100e657600080fd5b50565b6000815190506100f8816100d2565b92915050565b6000819050919050565b610111816100fe565b811461011c57600080fd5b50565b60008151905061012e81610108565b92915050565b60008060006060848603121561014d5761014c610089565b5b600061015b868287016100e9565b935050602061016c8682870161011f565b925050604061017d8682870161011f565b9150509250925092565b6105e3806101966000396000f3fe6080604052600436106100385760003560e01c806365f1ba171461005157806386d79bcc1461007c578063a37626fc146100a757610047565b36610047576100456100d2565b005b61004f6100d2565b005b34801561005d57600080fd5b506100666102d6565b6040516100739190610301565b60405180910390f35b34801561008857600080fd5b506100916102dc565b60405161009e9190610301565b60405180910390f35b3480156100b357600080fd5b506100bc6102e2565b6040516100c99190610301565b60405180910390f35b600060015414610117576040517f08c379a000000000000000000000000000000000000000000000000000000000815260040161010e90610379565b60405180910390fd5b346000541461015b576040517f08c379a00000000000000000000000000000000000000000000000000000000081526004016101529061040b565b60405180910390fd5b346001600082825461016d919061045a565b925050819055506000600360009054906101000a900473ffffffffffffffffffffffffffffffffffffffff1673ffffffffffffffffffffffffffffffffffffffff16346002546040516024016101c39190610301565b6040516020818303038152906040527f800fb83f000000000000000000000000000000000000000000000000000000007bffffffffffffffffffffffffffffffffffffffffffffffffffffffff19166020820180517bffffffffffffffffffffffffffffffffffffffffffffffffffffffff838183161783525050505060405161024d919061052a565b60006040518083038185875af1925050503d806000811461028a576040519150601f19603f3d011682016040523d82523d6000602084013e61028f565b606091505b50509050806102d3576040517f08c379a00000000000000000000000000000000000000000000000000000000081526004016102ca9061058d565b60405180910390fd5b50565b60005481565b60015481565b60025481565b6000819050919050565b6102fb816102e8565b82525050565b600060208201905061031660008301846102f2565b92915050565b600082825260208201905092915050565b7f4572726f3a206974656d206a6120666f69207061676f00000000000000000000600082015250565b600061036360168361031c565b915061036e8261032d565b602082019050919050565b6000602082019050818103600083015261039281610356565b9050919050565b7f4572726f3a20736f6d656e746520706167616d656e746f20696e746569726f2060008201527f7065726d697469646f0000000000000000000000000000000000000000000000602082015250565b60006103f560298361031c565b915061040082610399565b604082019050919050565b60006020820190508181036000830152610424816103e8565b9050919050565b7f4e487b7100000000000000000000000000000000000000000000000000000000600052601160045260246000fd5b6000610465826102e8565b9150610470836102e8565b9250827fffffffffffffffffffffffffffffffffffffffffffffffffffffffffffffffff038211156104a5576104a461042b565b5b828201905092915050565b600081519050919050565b600081905092915050565b60005b838110156104e45780820151818401526020810190506104c9565b838111156104f3576000848401525b50505050565b6000610504826104b0565b61050e81856104bb565b935061051e8185602086016104c6565b80840191505092915050565b600061053682846104f9565b915081905092915050565b7f4572726f3a207472616e736163616f2063616e63656c61646100000000000000600082015250565b600061057760198361031c565b915061058282610541565b602082019050919050565b600060208201905081810360008301526105a68161056a565b905091905056fea2646970667358221220a5c0f8ae0e44082576eeee12ecf83f3bc4cb5b9ef8973c297e443f82b0e6273f64736f6c634300080e0033",
  "immutableReferences": {},
  "source": "//SPDX-License-Identifier: MIT\r\npragma solidity ^0.8.1;\r\nimport \"./ItemManager.sol\";\r\n//\r\ncontract Item {\r\n    uint public sv_priceInWei;\r\n    uint public sv_pricePaid;\r\n    uint public sv_index;\r\n    ItemManager sv_parertSC;\r\n    \r\n    constructor (ItemManager _parentContract, uint _sv_priceInWei, uint _sv_index)  {\r\n        sv_priceInWei = _sv_priceInWei;\r\n        sv_parertSC = _parentContract;\r\n        sv_index = _sv_index;\r\n\r\n    } \r\n\r\n    receive() external payable{\r\n        fallbackReceive();\r\n    }\r\n\r\n    fallback () external payable{\r\n        fallbackReceive();\r\n    }\r\n\r\n    function fallbackReceive() internal {\r\n        require(sv_pricePaid == 0, \"Erro: item ja foi pago\");\r\n        require(sv_priceInWei == msg.value, \"Erro: somente pagamento inteiro permitido\");\r\n        sv_pricePaid += msg.value;\r\n        //Lowlevel, economiza gas. Essa funo retorna o primeiro parametro bool, se foi sucesso ou nao e o segundo o retorno da funo, nesse caso triggerPayment nao retorna nada\r\n        (bool sucess,) = address(sv_parertSC).call{value: msg.value}(abi.encodeWithSignature(\"triggerPayment(uint256)\", sv_index));\r\n        //a mema funo highlevel somente enviaria a grana mais sem chamada nenhuma de funo \r\n        //payable(address(parentContract)).transfer(msg.value);\r\n        require(sucess, \"Erro: transacao cancelada\");\r\n    } \r\n}",
  "sourcePath": "D:\\Dev\\Estudos\\BlockchainDev\\UdemyCourseLab2-SupplyChain\\contracts\\Item.sol",
  "compiler": {
    "name": "solc",
    "version": "0.8.14+commit.80d49f37.Emscripten.clang"
  },
  "schemaVersion": "3.4.7",
  "updatedAt": "2022-06-07T13:56:18.727Z",
  "devdoc": {
    "kind": "dev",
    "methods": {},
    "version": 1
  },
  "userdoc": {
    "kind": "user",
    "methods": {},
    "version": 1
  }
}